{
  "_format": "hh-sol-artifact-1",
  "contractName": "Voting",
  "sourceName": "contracts/Lock.sol",
  "abi": [
    {
      "inputs": [],
      "stateMutability": "nonpayable",
      "type": "constructor"
    },
    {
      "inputs": [
        {
          "internalType": "address",
          "name": "owner",
          "type": "address"
        }
      ],
      "name": "OwnableInvalidOwner",
      "type": "error"
    },
    {
      "inputs": [
        {
          "internalType": "address",
          "name": "account",
          "type": "address"
        }
      ],
      "name": "OwnableUnauthorizedAccount",
      "type": "error"
    },
    {
      "anonymous": false,
      "inputs": [
        {
          "indexed": false,
          "internalType": "uint256",
          "name": "candidateId",
          "type": "uint256"
        },
        {
          "indexed": false,
          "internalType": "string",
          "name": "name",
          "type": "string"
        },
        {
          "indexed": false,
          "internalType": "address",
          "name": "candidateAddress",
          "type": "address"
        },
        {
          "indexed": false,
          "internalType": "address",
          "name": "tokenAddress",
          "type": "address"
        },
        {
          "indexed": false,
          "internalType": "uint256",
          "name": "transferAmount",
          "type": "uint256"
        }
      ],
      "name": "CandidateAdded",
      "type": "event"
    },
    {
      "anonymous": false,
      "inputs": [
        {
          "indexed": true,
          "internalType": "address",
          "name": "previousOwner",
          "type": "address"
        },
        {
          "indexed": true,
          "internalType": "address",
          "name": "newOwner",
          "type": "address"
        }
      ],
      "name": "OwnershipTransferred",
      "type": "event"
    },
    {
      "anonymous": false,
      "inputs": [
        {
          "indexed": false,
          "internalType": "address",
          "name": "tokenAddress",
          "type": "address"
        },
        {
          "indexed": false,
          "internalType": "string",
          "name": "name",
          "type": "string"
        },
        {
          "indexed": false,
          "internalType": "string",
          "name": "symbol",
          "type": "string"
        },
        {
          "indexed": false,
          "internalType": "uint256",
          "name": "initialSupply",
          "type": "uint256"
        }
      ],
      "name": "TokenCreated",
      "type": "event"
    },
    {
      "anonymous": false,
      "inputs": [
        {
          "indexed": true,
          "internalType": "address",
          "name": "sender",
          "type": "address"
        },
        {
          "indexed": true,
          "internalType": "uint256",
          "name": "candidateId",
          "type": "uint256"
        },
        {
          "indexed": false,
          "internalType": "uint256",
          "name": "amount",
          "type": "uint256"
        }
      ],
      "name": "TokenSent",
      "type": "event"
    },
    {
      "anonymous": false,
      "inputs": [
        {
          "indexed": true,
          "internalType": "address",
          "name": "voter",
          "type": "address"
        },
        {
          "indexed": true,
          "internalType": "uint256",
          "name": "candidateId",
          "type": "uint256"
        }
      ],
      "name": "Voted",
      "type": "event"
    },
    {
      "inputs": [
        {
          "internalType": "string",
          "name": "_name",
          "type": "string"
        },
        {
          "internalType": "contract VotingToken",
          "name": "_token",
          "type": "address"
        },
        {
          "internalType": "uint256",
          "name": "_transferAmount",
          "type": "uint256"
        }
      ],
      "name": "addCandidate",
      "outputs": [],
      "stateMutability": "nonpayable",
      "type": "function"
    },
    {
      "inputs": [
        {
          "internalType": "uint256",
          "name": "",
          "type": "uint256"
        }
      ],
      "name": "candidates",
      "outputs": [
        {
          "internalType": "uint256",
          "name": "id",
          "type": "uint256"
        },
        {
          "internalType": "string",
          "name": "name",
          "type": "string"
        },
        {
          "internalType": "address",
          "name": "candidateAddress",
          "type": "address"
        },
        {
          "internalType": "uint256",
          "name": "voteCount",
          "type": "uint256"
        },
        {
          "internalType": "contract VotingToken",
          "name": "token",
          "type": "address"
        },
        {
          "internalType": "uint256",
          "name": "transferAmount",
          "type": "uint256"
        }
      ],
      "stateMutability": "view",
      "type": "function"
    },
    {
      "inputs": [],
      "name": "candidatesCount",
      "outputs": [
        {
          "internalType": "uint256",
          "name": "",
          "type": "uint256"
        }
      ],
      "stateMutability": "view",
      "type": "function"
    },
    {
      "inputs": [
        {
          "internalType": "string",
          "name": "name",
          "type": "string"
        },
        {
          "internalType": "string",
          "name": "symbol",
          "type": "string"
        },
        {
          "internalType": "uint256",
          "name": "initialSupply",
          "type": "uint256"
        },
        {
          "internalType": "uint8",
          "name": "decimal",
          "type": "uint8"
        }
      ],
      "name": "createToken",
      "outputs": [
        {
          "internalType": "address",
          "name": "",
          "type": "address"
        }
      ],
      "stateMutability": "nonpayable",
      "type": "function"
    },
    {
      "inputs": [],
      "name": "getCandidates",
      "outputs": [
        {
          "components": [
            {
              "internalType": "uint256",
              "name": "id",
              "type": "uint256"
            },
            {
              "internalType": "string",
              "name": "name",
              "type": "string"
            },
            {
              "internalType": "address",
              "name": "candidateAddress",
              "type": "address"
            },
            {
              "internalType": "uint256",
              "name": "voteCount",
              "type": "uint256"
            },
            {
              "internalType": "contract VotingToken",
              "name": "token",
              "type": "address"
            },
            {
              "internalType": "uint256",
              "name": "transferAmount",
              "type": "uint256"
            }
          ],
          "internalType": "struct Voting.Candidate[]",
          "name": "",
          "type": "tuple[]"
        }
      ],
      "stateMutability": "view",
      "type": "function"
    },
    {
      "inputs": [],
      "name": "owner",
      "outputs": [
        {
          "internalType": "address",
          "name": "",
          "type": "address"
        }
      ],
      "stateMutability": "view",
      "type": "function"
    },
    {
      "inputs": [],
      "name": "registerVoter",
      "outputs": [],
      "stateMutability": "nonpayable",
      "type": "function"
    },
    {
      "inputs": [
        {
          "internalType": "address",
          "name": "",
          "type": "address"
        }
      ],
      "name": "registeredVoters",
      "outputs": [
        {
          "internalType": "bool",
          "name": "",
          "type": "bool"
        }
      ],
      "stateMutability": "view",
      "type": "function"
    },
    {
      "inputs": [],
      "name": "renounceOwnership",
      "outputs": [],
      "stateMutability": "nonpayable",
      "type": "function"
    },
    {
      "inputs": [
        {
          "internalType": "uint256",
          "name": "_amount",
          "type": "uint256"
        },
        {
          "internalType": "uint256",
          "name": "_candidateId",
          "type": "uint256"
        }
      ],
      "name": "sendTokenToVoteContract",
      "outputs": [],
      "stateMutability": "nonpayable",
      "type": "function"
    },
    {
      "inputs": [
        {
          "internalType": "address",
          "name": "",
          "type": "address"
        }
      ],
      "name": "tokenOfAddress",
      "outputs": [
        {
          "internalType": "address",
          "name": "",
          "type": "address"
        }
      ],
      "stateMutability": "view",
      "type": "function"
    },
    {
      "inputs": [
        {
          "internalType": "address",
          "name": "newOwner",
          "type": "address"
        }
      ],
      "name": "transferOwnership",
      "outputs": [],
      "stateMutability": "nonpayable",
      "type": "function"
    },
    {
      "inputs": [
        {
          "internalType": "uint256",
          "name": "_candidateId",
          "type": "uint256"
        }
      ],
      "name": "vote",
      "outputs": [],
      "stateMutability": "nonpayable",
      "type": "function"
    },
    {
      "inputs": [
        {
          "internalType": "address",
          "name": "",
          "type": "address"
        }
      ],
      "name": "voters",
      "outputs": [
        {
          "internalType": "bool",
          "name": "",
          "type": "bool"
        }
      ],
      "stateMutability": "view",
      "type": "function"
    }
  ],
  "bytecode": "0x608060405234801561001057600080fd5b5033600073ffffffffffffffffffffffffffffffffffffffff168173ffffffffffffffffffffffffffffffffffffffff16036100845760006040517f1e4fbdf700000000000000000000000000000000000000000000000000000000815260040161007b919061019e565b60405180910390fd5b6100938161009960201b60201c565b506101b9565b60008060009054906101000a900473ffffffffffffffffffffffffffffffffffffffff169050816000806101000a81548173ffffffffffffffffffffffffffffffffffffffff021916908373ffffffffffffffffffffffffffffffffffffffff1602179055508173ffffffffffffffffffffffffffffffffffffffff168173ffffffffffffffffffffffffffffffffffffffff167f8be0079c531659141344cd1fd0a4f28419497f9722a3daafe3b4186f6b6457e060405160405180910390a35050565b600073ffffffffffffffffffffffffffffffffffffffff82169050919050565b60006101888261015d565b9050919050565b6101988161017d565b82525050565b60006020820190506101b3600083018461018f565b92915050565b6142d0806101c86000396000f3fe608060405234801561001057600080fd5b50600436106100ea5760003560e01c8063715018a61161008c578063a9ff6df111610066578063a9ff6df11461023c578063b64acddd1461026c578063ecb617d91461029c578063f2fde38b146102a6576100ea565b8063715018a6146101e45780638da5cb5b146101ee578063a3ec138d1461020c576100ea565b806322f7195c116100c857806322f7195c146101595780632d35a8a2146101755780633477ee2e14610193578063513f7155146101c8576100ea565b80630121b93f146100ef57806306a49fce1461010b5780631da7631f14610129575b600080fd5b61010960048036038101906101049190611536565b6102c2565b005b610113610733565b60405161012091906117ed565b60405180910390f35b610143600480360381019061013e919061183b565b61095e565b6040516101509190611877565b60405180910390f35b610173600480360381019061016e9190611a05565b610991565b005b61017d610b25565b60405161018a9190611a83565b60405180910390f35b6101ad60048036038101906101a89190611536565b610b2b565b6040516101bf96959493929190611af7565b60405180910390f35b6101e260048036038101906101dd9190611b5f565b610c2f565b005b6101ec611038565b005b6101f661104c565b6040516102039190611877565b60405180910390f35b6102266004803603810190610221919061183b565b611075565b6040516102339190611bba565b60405180910390f35b6102566004803603810190610251919061183b565b611095565b6040516102639190611bba565b60405180910390f35b61028660048036038101906102819190611c0e565b6110b5565b6040516102939190611877565b60405180910390f35b6102a46111bd565b005b6102c060048036038101906102bb919061183b565b6112a4565b005b600360003373ffffffffffffffffffffffffffffffffffffffff1673ffffffffffffffffffffffffffffffffffffffff16815260200190815260200160002060009054906101000a900460ff1661034e576040517f08c379a000000000000000000000000000000000000000000000000000000000815260040161034590611cf9565b60405180910390fd5b600260003373ffffffffffffffffffffffffffffffffffffffff1673ffffffffffffffffffffffffffffffffffffffff16815260200190815260200160002060009054906101000a900460ff16156103db576040517f08c379a00000000000000000000000000000000000000000000000000000000081526004016103d290611d65565b60405180910390fd5b6000811180156103ed57506005548111155b61042c576040517f08c379a000000000000000000000000000000000000000000000000000000000815260040161042390611dd1565b60405180910390fd5b600060016000838152602001908152602001600020905080600301600081548092919061045890611e20565b919050555060008160040160009054906101000a900473ffffffffffffffffffffffffffffffffffffffff1673ffffffffffffffffffffffffffffffffffffffff1663313ce5676040518163ffffffff1660e01b8152600401602060405180830381865afa1580156104ce573d6000803e3d6000fd5b505050506040513d601f19601f820116820180604052508101906104f29190611e7d565b600a6104fe9190611fdd565b826005015461050d9190612028565b9050808260040160009054906101000a900473ffffffffffffffffffffffffffffffffffffffff1673ffffffffffffffffffffffffffffffffffffffff166370a08231306040518263ffffffff1660e01b815260040161056d9190611877565b602060405180830381865afa15801561058a573d6000803e3d6000fd5b505050506040513d601f19601f820116820180604052508101906105ae919061207f565b10156105ef576040517f08c379a00000000000000000000000000000000000000000000000000000000081526004016105e69061211e565b60405180910390fd5b8160040160009054906101000a900473ffffffffffffffffffffffffffffffffffffffff1673ffffffffffffffffffffffffffffffffffffffff1663a9059cbb33836040518363ffffffff1660e01b815260040161064e92919061213e565b6020604051808303816000875af115801561066d573d6000803e3d6000fd5b505050506040513d601f19601f820116820180604052508101906106919190612193565b506001600260003373ffffffffffffffffffffffffffffffffffffffff1673ffffffffffffffffffffffffffffffffffffffff16815260200190815260200160002060006101000a81548160ff021916908315150217905550823373ffffffffffffffffffffffffffffffffffffffff167f4d99b957a2bc29a30ebd96a7be8e68fe50a3c701db28a91436490b7d53870ca460405160405180910390a3505050565b6060600060055467ffffffffffffffff8111156107535761075261189c565b5b60405190808252806020026020018201604052801561078c57816020015b61077961147d565b8152602001906001900390816107715790505b5090506000600190505b600554811161095657600160008281526020019081526020016000206040518060c0016040529081600082015481526020016001820180546107d7906121ef565b80601f0160208091040260200160405190810160405280929190818152602001828054610803906121ef565b80156108505780601f1061082557610100808354040283529160200191610850565b820191906000526020600020905b81548152906001019060200180831161083357829003601f168201915b505050505081526020016002820160009054906101000a900473ffffffffffffffffffffffffffffffffffffffff1673ffffffffffffffffffffffffffffffffffffffff1673ffffffffffffffffffffffffffffffffffffffff168152602001600382015481526020016004820160009054906101000a900473ffffffffffffffffffffffffffffffffffffffff1673ffffffffffffffffffffffffffffffffffffffff1673ffffffffffffffffffffffffffffffffffffffff168152602001600582015481525050826001836109279190612220565b8151811061093857610937612254565b5b6020026020010181905250808061094e90611e20565b915050610796565b508091505090565b60046020528060005260406000206000915054906101000a900473ffffffffffffffffffffffffffffffffffffffff1681565b600560008154809291906109a490611e20565b91905055506040518060c0016040528060055481526020018481526020013373ffffffffffffffffffffffffffffffffffffffff168152602001600081526020018373ffffffffffffffffffffffffffffffffffffffff16815260200182815250600160006005548152602001908152602001600020600082015181600001556020820151816001019081610a399190612425565b5060408201518160020160006101000a81548173ffffffffffffffffffffffffffffffffffffffff021916908373ffffffffffffffffffffffffffffffffffffffff1602179055506060820151816003015560808201518160040160006101000a81548173ffffffffffffffffffffffffffffffffffffffff021916908373ffffffffffffffffffffffffffffffffffffffff16021790555060a082015181600501559050507fb84310c6bb026def586cd9a9e2b54a0cee433a2e3285811c237b0b2ea53b5ece60055484338585604051610b189594939291906124f7565b60405180910390a1505050565b60055481565b6001602052806000526040600020600091509050806000015490806001018054610b54906121ef565b80601f0160208091040260200160405190810160405280929190818152602001828054610b80906121ef565b8015610bcd5780601f10610ba257610100808354040283529160200191610bcd565b820191906000526020600020905b815481529060010190602001808311610bb057829003601f168201915b5050505050908060020160009054906101000a900473ffffffffffffffffffffffffffffffffffffffff16908060030154908060040160009054906101000a900473ffffffffffffffffffffffffffffffffffffffff16908060050154905086565b60008111610c72576040517f08c379a0000000000000000000000000000000000000000000000000000000008152600401610c699061259d565b60405180910390fd5b600554811115610cb7576040517f08c379a0000000000000000000000000000000000000000000000000000000008152600401610cae90611dd1565b60405180910390fd5b600060016000838152602001908152602001600020905060008160040160009054906101000a900473ffffffffffffffffffffffffffffffffffffffff1673ffffffffffffffffffffffffffffffffffffffff1663313ce5676040518163ffffffff1660e01b8152600401602060405180830381865afa158015610d3f573d6000803e3d6000fd5b505050506040513d601f19601f82011682018060405250810190610d639190611e7d565b600a610d6f9190611fdd565b84610d7a9190612028565b9050808260040160009054906101000a900473ffffffffffffffffffffffffffffffffffffffff1673ffffffffffffffffffffffffffffffffffffffff1663dd62ed3e33306040518363ffffffff1660e01b8152600401610ddc9291906125bd565b602060405180830381865afa158015610df9573d6000803e3d6000fd5b505050506040513d601f19601f82011682018060405250810190610e1d919061207f565b1015610e5e576040517f08c379a0000000000000000000000000000000000000000000000000000000008152600401610e5590612658565b60405180910390fd5b808260040160009054906101000a900473ffffffffffffffffffffffffffffffffffffffff1673ffffffffffffffffffffffffffffffffffffffff166370a08231336040518263ffffffff1660e01b8152600401610ebc9190611877565b602060405180830381865afa158015610ed9573d6000803e3d6000fd5b505050506040513d601f19601f82011682018060405250810190610efd919061207f565b1015610f3e576040517f08c379a0000000000000000000000000000000000000000000000000000000008152600401610f35906126c4565b60405180910390fd5b8160040160009054906101000a900473ffffffffffffffffffffffffffffffffffffffff1673ffffffffffffffffffffffffffffffffffffffff166323b872dd3330846040518463ffffffff1660e01b8152600401610f9f939291906126e4565b6020604051808303816000875af1158015610fbe573d6000803e3d6000fd5b505050506040513d601f19601f82011682018060405250810190610fe29190612193565b50823373ffffffffffffffffffffffffffffffffffffffff167f0d13f5da5576e17f3ca76b16a95ca407faceadd9018e0087d32c2ba88e113e978360405161102a9190611a83565b60405180910390a350505050565b61104061132a565b61104a60006113b1565b565b60008060009054906101000a900473ffffffffffffffffffffffffffffffffffffffff16905090565b60026020528060005260406000206000915054906101000a900460ff1681565b60036020528060005260406000206000915054906101000a900460ff1681565b60008085858585336040516110c9906114df565b6110d795949392919061272a565b604051809103906000f0801580156110f3573d6000803e3d6000fd5b5090507f75d1eb2d61d7e210835bc16e78ac4d0e4f905c108a81852a6b68c4d46b4f40f38187878760405161112b949392919061278b565b60405180910390a180600460003373ffffffffffffffffffffffffffffffffffffffff1673ffffffffffffffffffffffffffffffffffffffff16815260200190815260200160002060006101000a81548173ffffffffffffffffffffffffffffffffffffffff021916908373ffffffffffffffffffffffffffffffffffffffff16021790555080915050949350505050565b600360003373ffffffffffffffffffffffffffffffffffffffff1673ffffffffffffffffffffffffffffffffffffffff16815260200190815260200160002060009054906101000a900460ff161561124a576040517f08c379a00000000000000000000000000000000000000000000000000000000081526004016112419061282a565b60405180910390fd5b6001600360003373ffffffffffffffffffffffffffffffffffffffff1673ffffffffffffffffffffffffffffffffffffffff16815260200190815260200160002060006101000a81548160ff021916908315150217905550565b6112ac61132a565b600073ffffffffffffffffffffffffffffffffffffffff168173ffffffffffffffffffffffffffffffffffffffff160361131e5760006040517f1e4fbdf70000000000000000000000000000000000000000000000000000000081526004016113159190611877565b60405180910390fd5b611327816113b1565b50565b611332611475565b73ffffffffffffffffffffffffffffffffffffffff1661135061104c565b73ffffffffffffffffffffffffffffffffffffffff16146113af57611373611475565b6040517f118cdaa70000000000000000000000000000000000000000000000000000000081526004016113a69190611877565b60405180910390fd5b565b60008060009054906101000a900473ffffffffffffffffffffffffffffffffffffffff169050816000806101000a81548173ffffffffffffffffffffffffffffffffffffffff021916908373ffffffffffffffffffffffffffffffffffffffff1602179055508173ffffffffffffffffffffffffffffffffffffffff168173ffffffffffffffffffffffffffffffffffffffff167f8be0079c531659141344cd1fd0a4f28419497f9722a3daafe3b4186f6b6457e060405160405180910390a35050565b600033905090565b6040518060c001604052806000815260200160608152602001600073ffffffffffffffffffffffffffffffffffffffff16815260200160008152602001600073ffffffffffffffffffffffffffffffffffffffff168152602001600081525090565b611a508061284b83390190565b6000604051905090565b600080fd5b600080fd5b6000819050919050565b61151381611500565b811461151e57600080fd5b50565b6000813590506115308161150a565b92915050565b60006020828403121561154c5761154b6114f6565b5b600061155a84828501611521565b91505092915050565b600081519050919050565b600082825260208201905092915050565b6000819050602082019050919050565b61159881611500565b82525050565b600081519050919050565b600082825260208201905092915050565b60005b838110156115d85780820151818401526020810190506115bd565b60008484015250505050565b6000601f19601f8301169050919050565b60006116008261159e565b61160a81856115a9565b935061161a8185602086016115ba565b611623816115e4565b840191505092915050565b600073ffffffffffffffffffffffffffffffffffffffff82169050919050565b60006116598261162e565b9050919050565b6116698161164e565b82525050565b6000819050919050565b600061169461168f61168a8461162e565b61166f565b61162e565b9050919050565b60006116a682611679565b9050919050565b60006116b88261169b565b9050919050565b6116c8816116ad565b82525050565b600060c0830160008301516116e6600086018261158f565b50602083015184820360208601526116fe82826115f5565b91505060408301516117136040860182611660565b506060830151611726606086018261158f565b50608083015161173960808601826116bf565b5060a083015161174c60a086018261158f565b508091505092915050565b600061176383836116ce565b905092915050565b6000602082019050919050565b600061178382611563565b61178d818561156e565b93508360208202850161179f8561157f565b8060005b858110156117db57848403895281516117bc8582611757565b94506117c78361176b565b925060208a019950506001810190506117a3565b50829750879550505050505092915050565b600060208201905081810360008301526118078184611778565b905092915050565b6118188161164e565b811461182357600080fd5b50565b6000813590506118358161180f565b92915050565b600060208284031215611851576118506114f6565b5b600061185f84828501611826565b91505092915050565b6118718161164e565b82525050565b600060208201905061188c6000830184611868565b92915050565b600080fd5b600080fd5b7f4e487b7100000000000000000000000000000000000000000000000000000000600052604160045260246000fd5b6118d4826115e4565b810181811067ffffffffffffffff821117156118f3576118f261189c565b5b80604052505050565b60006119066114ec565b905061191282826118cb565b919050565b600067ffffffffffffffff8211156119325761193161189c565b5b61193b826115e4565b9050602081019050919050565b82818337600083830152505050565b600061196a61196584611917565b6118fc565b90508281526020810184848401111561198657611985611897565b5b611991848285611948565b509392505050565b600082601f8301126119ae576119ad611892565b5b81356119be848260208601611957565b91505092915050565b60006119d28261164e565b9050919050565b6119e2816119c7565b81146119ed57600080fd5b50565b6000813590506119ff816119d9565b92915050565b600080600060608486031215611a1e57611a1d6114f6565b5b600084013567ffffffffffffffff811115611a3c57611a3b6114fb565b5b611a4886828701611999565b9350506020611a59868287016119f0565b9250506040611a6a86828701611521565b9150509250925092565b611a7d81611500565b82525050565b6000602082019050611a986000830184611a74565b92915050565b600082825260208201905092915050565b6000611aba8261159e565b611ac48185611a9e565b9350611ad48185602086016115ba565b611add816115e4565b840191505092915050565b611af1816116ad565b82525050565b600060c082019050611b0c6000830189611a74565b8181036020830152611b1e8188611aaf565b9050611b2d6040830187611868565b611b3a6060830186611a74565b611b476080830185611ae8565b611b5460a0830184611a74565b979650505050505050565b60008060408385031215611b7657611b756114f6565b5b6000611b8485828601611521565b9250506020611b9585828601611521565b9150509250929050565b60008115159050919050565b611bb481611b9f565b82525050565b6000602082019050611bcf6000830184611bab565b92915050565b600060ff82169050919050565b611beb81611bd5565b8114611bf657600080fd5b50565b600081359050611c0881611be2565b92915050565b60008060008060808587031215611c2857611c276114f6565b5b600085013567ffffffffffffffff811115611c4657611c456114fb565b5b611c5287828801611999565b945050602085013567ffffffffffffffff811115611c7357611c726114fb565b5b611c7f87828801611999565b9350506040611c9087828801611521565b9250506060611ca187828801611bf9565b91505092959194509250565b7f596f7520617265206e6f74207265676973746572656420746f20766f74652e00600082015250565b6000611ce3601f83611a9e565b9150611cee82611cad565b602082019050919050565b60006020820190508181036000830152611d1281611cd6565b9050919050565b7f596f75206861766520616c726561647920766f7465642e000000000000000000600082015250565b6000611d4f601783611a9e565b9150611d5a82611d19565b602082019050919050565b60006020820190508181036000830152611d7e81611d42565b9050919050565b7f496e76616c69642063616e6469646174652049442e0000000000000000000000600082015250565b6000611dbb601583611a9e565b9150611dc682611d85565b602082019050919050565b60006020820190508181036000830152611dea81611dae565b9050919050565b7f4e487b7100000000000000000000000000000000000000000000000000000000600052601160045260246000fd5b6000611e2b82611500565b91507fffffffffffffffffffffffffffffffffffffffffffffffffffffffffffffffff8203611e5d57611e5c611df1565b5b600182019050919050565b600081519050611e7781611be2565b92915050565b600060208284031215611e9357611e926114f6565b5b6000611ea184828501611e68565b91505092915050565b60008160011c9050919050565b6000808291508390505b6001851115611f0157808604811115611edd57611edc611df1565b5b6001851615611eec5780820291505b8081029050611efa85611eaa565b9450611ec1565b94509492505050565b600082611f1a5760019050611fd6565b81611f285760009050611fd6565b8160018114611f3e5760028114611f4857611f77565b6001915050611fd6565b60ff841115611f5a57611f59611df1565b5b8360020a915084821115611f7157611f70611df1565b5b50611fd6565b5060208310610133831016604e8410600b8410161715611fac5782820a905083811115611fa757611fa6611df1565b5b611fd6565b611fb98484846001611eb7565b92509050818404811115611fd057611fcf611df1565b5b81810290505b9392505050565b6000611fe882611500565b9150611ff383611bd5565b92506120207fffffffffffffffffffffffffffffffffffffffffffffffffffffffffffffffff8484611f0a565b905092915050565b600061203382611500565b915061203e83611500565b925082820261204c81611500565b9150828204841483151761206357612062611df1565b5b5092915050565b6000815190506120798161150a565b92915050565b600060208284031215612095576120946114f6565b5b60006120a38482850161206a565b91505092915050565b7f496e73756666696369656e7420746f6b656e2062616c616e636520696e20746860008201527f697320636f6e74726163742e0000000000000000000000000000000000000000602082015250565b6000612108602c83611a9e565b9150612113826120ac565b604082019050919050565b60006020820190508181036000830152612137816120fb565b9050919050565b60006040820190506121536000830185611868565b6121606020830184611a74565b9392505050565b61217081611b9f565b811461217b57600080fd5b50565b60008151905061218d81612167565b92915050565b6000602082840312156121a9576121a86114f6565b5b60006121b78482850161217e565b91505092915050565b7f4e487b7100000000000000000000000000000000000000000000000000000000600052602260045260246000fd5b6000600282049050600182168061220757607f821691505b60208210810361221a576122196121c0565b5b50919050565b600061222b82611500565b915061223683611500565b925082820390508181111561224e5761224d611df1565b5b92915050565b7f4e487b7100000000000000000000000000000000000000000000000000000000600052603260045260246000fd5b60008190508160005260206000209050919050565b60006020601f8301049050919050565b600082821b905092915050565b6000600883026122e57fffffffffffffffffffffffffffffffffffffffffffffffffffffffffffffffff826122a8565b6122ef86836122a8565b95508019841693508086168417925050509392505050565b600061232261231d61231884611500565b61166f565b611500565b9050919050565b6000819050919050565b61233c83612307565b61235061234882612329565b8484546122b5565b825550505050565b600090565b612365612358565b612370818484612333565b505050565b5b818110156123945761238960008261235d565b600181019050612376565b5050565b601f8211156123d9576123aa81612283565b6123b384612298565b810160208510156123c2578190505b6123d66123ce85612298565b830182612375565b50505b505050565b600082821c905092915050565b60006123fc600019846008026123de565b1980831691505092915050565b600061241583836123eb565b9150826002028217905092915050565b61242e8261159e565b67ffffffffffffffff8111156124475761244661189c565b5b61245182546121ef565b61245c828285612398565b600060209050601f83116001811461248f576000841561247d578287015190505b6124878582612409565b8655506124ef565b601f19841661249d86612283565b60005b828110156124c5578489015182556001820191506020850194506020810190506124a0565b868310156124e257848901516124de601f8916826123eb565b8355505b6001600288020188555050505b505050505050565b600060a08201905061250c6000830188611a74565b818103602083015261251e8187611aaf565b905061252d6040830186611868565b61253a6060830185611868565b6125476080830184611a74565b9695505050505050565b7f4964206d7573742062652067726561746572207468616e20302e000000000000600082015250565b6000612587601a83611a9e565b915061259282612551565b602082019050919050565b600060208201905081810360008301526125b68161257a565b9050919050565b60006040820190506125d26000830185611868565b6125df6020830184611868565b9392505050565b7f496e73756666696369656e7420616c6c6f77616e636520746f2073656e64207460008201527f6f6b656e732e0000000000000000000000000000000000000000000000000000602082015250565b6000612642602683611a9e565b915061264d826125e6565b604082019050919050565b6000602082019050818103600083015261267181612635565b9050919050565b7f496e73756666696369656e7420746f6b656e2062616c616e63652e0000000000600082015250565b60006126ae601b83611a9e565b91506126b982612678565b602082019050919050565b600060208201905081810360008301526126dd816126a1565b9050919050565b60006060820190506126f96000830186611868565b6127066020830185611868565b6127136040830184611a74565b949350505050565b61272481611bd5565b82525050565b600060a08201905081810360008301526127448188611aaf565b905081810360208301526127588187611aaf565b90506127676040830186611a74565b612774606083018561271b565b6127816080830184611868565b9695505050505050565b60006080820190506127a06000830187611868565b81810360208301526127b28186611aaf565b905081810360408301526127c68185611aaf565b90506127d56060830184611a74565b95945050505050565b7f596f752061726520616c726561647920726567697374657265642e0000000000600082015250565b6000612814601b83611a9e565b915061281f826127de565b602082019050919050565b6000602082019050818103600083015261284381612807565b905091905056fe608060405234801561001057600080fd5b50604051611a50380380611a5083398181016040528101906100329190610594565b84848160039081610043919061085e565b508060049081610053919061085e565b50505081600560006101000a81548160ff021916908360ff16021790555061009b818360ff16600a6100859190610a92565b856100909190610add565b6100a560201b60201c565b5050505050610bde565b600073ffffffffffffffffffffffffffffffffffffffff168273ffffffffffffffffffffffffffffffffffffffff16036101175760006040517fec442f0500000000000000000000000000000000000000000000000000000000815260040161010e9190610b2e565b60405180910390fd5b6101296000838361012d60201b60201c565b5050565b600073ffffffffffffffffffffffffffffffffffffffff168373ffffffffffffffffffffffffffffffffffffffff160361017f5780600260008282546101739190610b49565b92505081905550610252565b60008060008573ffffffffffffffffffffffffffffffffffffffff1673ffffffffffffffffffffffffffffffffffffffff1681526020019081526020016000205490508181101561020b578381836040517fe450d38c00000000000000000000000000000000000000000000000000000000815260040161020293929190610b8c565b60405180910390fd5b8181036000808673ffffffffffffffffffffffffffffffffffffffff1673ffffffffffffffffffffffffffffffffffffffff16815260200190815260200160002081905550505b600073ffffffffffffffffffffffffffffffffffffffff168273ffffffffffffffffffffffffffffffffffffffff160361029b57806002600082825403925050819055506102e8565b806000808473ffffffffffffffffffffffffffffffffffffffff1673ffffffffffffffffffffffffffffffffffffffff168152602001908152602001600020600082825401925050819055505b8173ffffffffffffffffffffffffffffffffffffffff168373ffffffffffffffffffffffffffffffffffffffff167fddf252ad1be2c89b69c2b068fc378daa952ba7f163c4a11628f55a4df523b3ef836040516103459190610bc3565b60405180910390a3505050565b6000604051905090565b600080fd5b600080fd5b600080fd5b600080fd5b6000601f19601f8301169050919050565b7f4e487b7100000000000000000000000000000000000000000000000000000000600052604160045260246000fd5b6103b982610370565b810181811067ffffffffffffffff821117156103d8576103d7610381565b5b80604052505050565b60006103eb610352565b90506103f782826103b0565b919050565b600067ffffffffffffffff82111561041757610416610381565b5b61042082610370565b9050602081019050919050565b60005b8381101561044b578082015181840152602081019050610430565b60008484015250505050565b600061046a610465846103fc565b6103e1565b9050828152602081018484840111156104865761048561036b565b5b61049184828561042d565b509392505050565b600082601f8301126104ae576104ad610366565b5b81516104be848260208601610457565b91505092915050565b6000819050919050565b6104da816104c7565b81146104e557600080fd5b50565b6000815190506104f7816104d1565b92915050565b600060ff82169050919050565b610513816104fd565b811461051e57600080fd5b50565b6000815190506105308161050a565b92915050565b600073ffffffffffffffffffffffffffffffffffffffff82169050919050565b600061056182610536565b9050919050565b61057181610556565b811461057c57600080fd5b50565b60008151905061058e81610568565b92915050565b600080600080600060a086880312156105b0576105af61035c565b5b600086015167ffffffffffffffff8111156105ce576105cd610361565b5b6105da88828901610499565b955050602086015167ffffffffffffffff8111156105fb576105fa610361565b5b61060788828901610499565b9450506040610618888289016104e8565b935050606061062988828901610521565b925050608061063a8882890161057f565b9150509295509295909350565b600081519050919050565b7f4e487b7100000000000000000000000000000000000000000000000000000000600052602260045260246000fd5b6000600282049050600182168061069957607f821691505b6020821081036106ac576106ab610652565b5b50919050565b60008190508160005260206000209050919050565b60006020601f8301049050919050565b600082821b905092915050565b6000600883026107147fffffffffffffffffffffffffffffffffffffffffffffffffffffffffffffffff826106d7565b61071e86836106d7565b95508019841693508086168417925050509392505050565b6000819050919050565b600061075b610756610751846104c7565b610736565b6104c7565b9050919050565b6000819050919050565b61077583610740565b61078961078182610762565b8484546106e4565b825550505050565b600090565b61079e610791565b6107a981848461076c565b505050565b5b818110156107cd576107c2600082610796565b6001810190506107af565b5050565b601f821115610812576107e3816106b2565b6107ec846106c7565b810160208510156107fb578190505b61080f610807856106c7565b8301826107ae565b50505b505050565b600082821c905092915050565b600061083560001984600802610817565b1980831691505092915050565b600061084e8383610824565b9150826002028217905092915050565b61086782610647565b67ffffffffffffffff8111156108805761087f610381565b5b61088a8254610681565b6108958282856107d1565b600060209050601f8311600181146108c857600084156108b6578287015190505b6108c08582610842565b865550610928565b601f1984166108d6866106b2565b60005b828110156108fe578489015182556001820191506020850194506020810190506108d9565b8683101561091b5784890151610917601f891682610824565b8355505b6001600288020188555050505b505050505050565b7f4e487b7100000000000000000000000000000000000000000000000000000000600052601160045260246000fd5b60008160011c9050919050565b6000808291508390505b60018511156109b65780860481111561099257610991610930565b5b60018516156109a15780820291505b80810290506109af8561095f565b9450610976565b94509492505050565b6000826109cf5760019050610a8b565b816109dd5760009050610a8b565b81600181146109f357600281146109fd57610a2c565b6001915050610a8b565b60ff841115610a0f57610a0e610930565b5b8360020a915084821115610a2657610a25610930565b5b50610a8b565b5060208310610133831016604e8410600b8410161715610a615782820a905083811115610a5c57610a5b610930565b5b610a8b565b610a6e848484600161096c565b92509050818404811115610a8557610a84610930565b5b81810290505b9392505050565b6000610a9d826104c7565b9150610aa8836104c7565b9250610ad57fffffffffffffffffffffffffffffffffffffffffffffffffffffffffffffffff84846109bf565b905092915050565b6000610ae8826104c7565b9150610af3836104c7565b9250828202610b01816104c7565b91508282048414831517610b1857610b17610930565b5b5092915050565b610b2881610556565b82525050565b6000602082019050610b436000830184610b1f565b92915050565b6000610b54826104c7565b9150610b5f836104c7565b9250828201905080821115610b7757610b76610930565b5b92915050565b610b86816104c7565b82525050565b6000606082019050610ba16000830186610b1f565b610bae6020830185610b7d565b610bbb6040830184610b7d565b949350505050565b6000602082019050610bd86000830184610b7d565b92915050565b610e6380610bed6000396000f3fe608060405234801561001057600080fd5b50600436106100935760003560e01c8063313ce56711610066578063313ce5671461013457806370a082311461015257806395d89b4114610182578063a9059cbb146101a0578063dd62ed3e146101d057610093565b806306fdde0314610098578063095ea7b3146100b657806318160ddd146100e657806323b872dd14610104575b600080fd5b6100a0610200565b6040516100ad9190610ab7565b60405180910390f35b6100d060048036038101906100cb9190610b72565b610292565b6040516100dd9190610bcd565b60405180910390f35b6100ee6102b5565b6040516100fb9190610bf7565b60405180910390f35b61011e60048036038101906101199190610c12565b6102bf565b60405161012b9190610bcd565b60405180910390f35b61013c6102ee565b6040516101499190610c81565b60405180910390f35b61016c60048036038101906101679190610c9c565b610305565b6040516101799190610bf7565b60405180910390f35b61018a61034d565b6040516101979190610ab7565b60405180910390f35b6101ba60048036038101906101b59190610b72565b6103df565b6040516101c79190610bcd565b60405180910390f35b6101ea60048036038101906101e59190610cc9565b610402565b6040516101f79190610bf7565b60405180910390f35b60606003805461020f90610d38565b80601f016020809104026020016040519081016040528092919081815260200182805461023b90610d38565b80156102885780601f1061025d57610100808354040283529160200191610288565b820191906000526020600020905b81548152906001019060200180831161026b57829003601f168201915b5050505050905090565b60008061029d610489565b90506102aa818585610491565b600191505092915050565b6000600254905090565b6000806102ca610489565b90506102d78582856104a3565b6102e2858585610537565b60019150509392505050565b6000600560009054906101000a900460ff16905090565b60008060008373ffffffffffffffffffffffffffffffffffffffff1673ffffffffffffffffffffffffffffffffffffffff168152602001908152602001600020549050919050565b60606004805461035c90610d38565b80601f016020809104026020016040519081016040528092919081815260200182805461038890610d38565b80156103d55780601f106103aa576101008083540402835291602001916103d5565b820191906000526020600020905b8154815290600101906020018083116103b857829003601f168201915b5050505050905090565b6000806103ea610489565b90506103f7818585610537565b600191505092915050565b6000600160008473ffffffffffffffffffffffffffffffffffffffff1673ffffffffffffffffffffffffffffffffffffffff16815260200190815260200160002060008373ffffffffffffffffffffffffffffffffffffffff1673ffffffffffffffffffffffffffffffffffffffff16815260200190815260200160002054905092915050565b600033905090565b61049e838383600161062b565b505050565b60006104af8484610402565b90507fffffffffffffffffffffffffffffffffffffffffffffffffffffffffffffffff81146105315781811015610521578281836040517ffb8f41b200000000000000000000000000000000000000000000000000000000815260040161051893929190610d78565b60405180910390fd5b6105308484848403600061062b565b5b50505050565b600073ffffffffffffffffffffffffffffffffffffffff168373ffffffffffffffffffffffffffffffffffffffff16036105a95760006040517f96c6fd1e0000000000000000000000000000000000000000000000000000000081526004016105a09190610daf565b60405180910390fd5b600073ffffffffffffffffffffffffffffffffffffffff168273ffffffffffffffffffffffffffffffffffffffff160361061b5760006040517fec442f050000000000000000000000000000000000000000000000000000000081526004016106129190610daf565b60405180910390fd5b610626838383610802565b505050565b600073ffffffffffffffffffffffffffffffffffffffff168473ffffffffffffffffffffffffffffffffffffffff160361069d5760006040517fe602df050000000000000000000000000000000000000000000000000000000081526004016106949190610daf565b60405180910390fd5b600073ffffffffffffffffffffffffffffffffffffffff168373ffffffffffffffffffffffffffffffffffffffff160361070f5760006040517f94280d620000000000000000000000000000000000000000000000000000000081526004016107069190610daf565b60405180910390fd5b81600160008673ffffffffffffffffffffffffffffffffffffffff1673ffffffffffffffffffffffffffffffffffffffff16815260200190815260200160002060008573ffffffffffffffffffffffffffffffffffffffff1673ffffffffffffffffffffffffffffffffffffffff1681526020019081526020016000208190555080156107fc578273ffffffffffffffffffffffffffffffffffffffff168473ffffffffffffffffffffffffffffffffffffffff167f8c5be1e5ebec7d5bd14f71427d1e84f3dd0314c0f7b2291e5b200ac8c7c3b925846040516107f39190610bf7565b60405180910390a35b50505050565b600073ffffffffffffffffffffffffffffffffffffffff168373ffffffffffffffffffffffffffffffffffffffff16036108545780600260008282546108489190610df9565b92505081905550610927565b60008060008573ffffffffffffffffffffffffffffffffffffffff1673ffffffffffffffffffffffffffffffffffffffff168152602001908152602001600020549050818110156108e0578381836040517fe450d38c0000000000000000000000000000000000000000000000000000000081526004016108d793929190610d78565b60405180910390fd5b8181036000808673ffffffffffffffffffffffffffffffffffffffff1673ffffffffffffffffffffffffffffffffffffffff16815260200190815260200160002081905550505b600073ffffffffffffffffffffffffffffffffffffffff168273ffffffffffffffffffffffffffffffffffffffff160361097057806002600082825403925050819055506109bd565b806000808473ffffffffffffffffffffffffffffffffffffffff1673ffffffffffffffffffffffffffffffffffffffff168152602001908152602001600020600082825401925050819055505b8173ffffffffffffffffffffffffffffffffffffffff168373ffffffffffffffffffffffffffffffffffffffff167fddf252ad1be2c89b69c2b068fc378daa952ba7f163c4a11628f55a4df523b3ef83604051610a1a9190610bf7565b60405180910390a3505050565b600081519050919050565b600082825260208201905092915050565b60005b83811015610a61578082015181840152602081019050610a46565b60008484015250505050565b6000601f19601f8301169050919050565b6000610a8982610a27565b610a938185610a32565b9350610aa3818560208601610a43565b610aac81610a6d565b840191505092915050565b60006020820190508181036000830152610ad18184610a7e565b905092915050565b600080fd5b600073ffffffffffffffffffffffffffffffffffffffff82169050919050565b6000610b0982610ade565b9050919050565b610b1981610afe565b8114610b2457600080fd5b50565b600081359050610b3681610b10565b92915050565b6000819050919050565b610b4f81610b3c565b8114610b5a57600080fd5b50565b600081359050610b6c81610b46565b92915050565b60008060408385031215610b8957610b88610ad9565b5b6000610b9785828601610b27565b9250506020610ba885828601610b5d565b9150509250929050565b60008115159050919050565b610bc781610bb2565b82525050565b6000602082019050610be26000830184610bbe565b92915050565b610bf181610b3c565b82525050565b6000602082019050610c0c6000830184610be8565b92915050565b600080600060608486031215610c2b57610c2a610ad9565b5b6000610c3986828701610b27565b9350506020610c4a86828701610b27565b9250506040610c5b86828701610b5d565b9150509250925092565b600060ff82169050919050565b610c7b81610c65565b82525050565b6000602082019050610c966000830184610c72565b92915050565b600060208284031215610cb257610cb1610ad9565b5b6000610cc084828501610b27565b91505092915050565b60008060408385031215610ce057610cdf610ad9565b5b6000610cee85828601610b27565b9250506020610cff85828601610b27565b9150509250929050565b7f4e487b7100000000000000000000000000000000000000000000000000000000600052602260045260246000fd5b60006002820490506001821680610d5057607f821691505b602082108103610d6357610d62610d09565b5b50919050565b610d7281610afe565b82525050565b6000606082019050610d8d6000830186610d69565b610d9a6020830185610be8565b610da76040830184610be8565b949350505050565b6000602082019050610dc46000830184610d69565b92915050565b7f4e487b7100000000000000000000000000000000000000000000000000000000600052601160045260246000fd5b6000610e0482610b3c565b9150610e0f83610b3c565b9250828201905080821115610e2757610e26610dca565b5b9291505056fea26469706673582212208483a0a98283b02d8e25b614db621ecfd6f79ba7857e234c8ab215f7c038b67764736f6c634300081b0033a26469706673582212207efe7bfee813b68e9b082c574ebb511ddf7321c99b65106924bbf57a70bc0cf264736f6c634300081b0033",
  "linkReferences": {},
  "deployedLinkReferences": {}
}